{
  "_format": "hh-sol-artifact-1",
  "contractName": "Bean",
  "sourceName": "contracts/Bean.sol",
  "abi": [
    {
      "inputs": [
        {
          "internalType": "address",
          "name": "_producer",
          "type": "address"
        },
        {
          "internalType": "string",
          "name": "_coffeeBean",
          "type": "string"
        },
        {
          "internalType": "string",
          "name": "_process",
          "type": "string"
        },
        {
          "internalType": "string",
          "name": "_varietal",
          "type": "string"
        },
        {
          "internalType": "uint256",
          "name": "_weightInKg",
          "type": "uint256"
        },
        {
          "internalType": "string",
          "name": "_harvestDate",
          "type": "string"
        },
        {
          "internalType": "contract CoffeeLine",
          "name": "_coffeeLine",
          "type": "address"
        }
      ],
      "stateMutability": "nonpayable",
      "type": "constructor"
    },
    {
      "inputs": [
        {
          "internalType": "address",
          "name": "_token",
          "type": "address"
        }
      ],
      "name": "acquireBean",
      "outputs": [],
      "stateMutability": "nonpayable",
      "type": "function"
    },
    {
      "inputs": [
        {
          "internalType": "address",
          "name": "_roaster",
          "type": "address"
        }
      ],
      "name": "getTimeline",
      "outputs": [
        {
          "components": [
            {
              "internalType": "uint256",
              "name": "creationDate",
              "type": "uint256"
            },
            {
              "internalType": "uint256",
              "name": "sellDate",
              "type": "uint256"
            },
            {
              "internalType": "uint256",
              "name": "acquisitionDate",
              "type": "uint256"
            }
          ],
          "internalType": "struct IBean.Timeline",
          "name": "",
          "type": "tuple"
        }
      ],
      "stateMutability": "view",
      "type": "function"
    },
    {
      "inputs": [],
      "name": "getTimeline",
      "outputs": [
        {
          "components": [
            {
              "internalType": "uint256",
              "name": "creationDate",
              "type": "uint256"
            },
            {
              "internalType": "uint256",
              "name": "sellDate",
              "type": "uint256"
            },
            {
              "internalType": "uint256",
              "name": "acquisitionDate",
              "type": "uint256"
            }
          ],
          "internalType": "struct IBean.Timeline",
          "name": "",
          "type": "tuple"
        }
      ],
      "stateMutability": "view",
      "type": "function"
    },
    {
      "inputs": [
        {
          "internalType": "string",
          "name": "_phoneNumber",
          "type": "string"
        },
        {
          "internalType": "uint256",
          "name": "_weightInKg",
          "type": "uint256"
        },
        {
          "internalType": "uint256",
          "name": "_price",
          "type": "uint256"
        }
      ],
      "name": "sellTo",
      "outputs": [],
      "stateMutability": "nonpayable",
      "type": "function"
    }
  ],
  "bytecode": "0x60806040527310c892a6ec43a53e45d0b916b4b7d383b1b78c0f6000806101000a81548173ffffffffffffffffffffffffffffffffffffffff021916908373ffffffffffffffffffffffffffffffffffffffff16021790555073874069fa1eb16d44d622f2e0ca25eea172369bc1600160006101000a81548173ffffffffffffffffffffffffffffffffffffffff021916908373ffffffffffffffffffffffffffffffffffffffff160217905550348015620000ba57600080fd5b5060405162001e9738038062001e978339818101604052810190620000e09190620003c2565b600073ffffffffffffffffffffffffffffffffffffffff168173ffffffffffffffffffffffffffffffffffffffff16141562000153576040517f08c379a00000000000000000000000000000000000000000000000000000000081526004016200014a90620004fa565b60405180910390fd5b86600360006101000a81548173ffffffffffffffffffffffffffffffffffffffff021916908373ffffffffffffffffffffffffffffffffffffffff1602179055508560049080519060200190620001ac9291906200025b565b508460059080519060200190620001c59291906200025b565b508360069080519060200190620001de9291906200025b565b50826007819055508160089080519060200190620001fe9291906200025b565b504260098190555082600a8190555080600260006101000a81548173ffffffffffffffffffffffffffffffffffffffff021916908373ffffffffffffffffffffffffffffffffffffffff160217905550505050505050506200078c565b828054620002699062000614565b90600052602060002090601f0160209004810192826200028d5760008555620002d9565b82601f10620002a857805160ff1916838001178555620002d9565b82800160010185558215620002d9579182015b82811115620002d8578251825591602001919060010190620002bb565b5b509050620002e89190620002ec565b5090565b5b8082111562000307576000816000905550600101620002ed565b5090565b6000620003226200031c8462000545565b6200051c565b9050828152602081018484840111156200033b57600080fd5b62000348848285620005de565b509392505050565b60008151905062000361816200073e565b92915050565b600081519050620003788162000758565b92915050565b600082601f8301126200039057600080fd5b8151620003a28482602086016200030b565b91505092915050565b600081519050620003bc8162000772565b92915050565b600080600080600080600060e0888a031215620003de57600080fd5b6000620003ee8a828b0162000350565b975050602088015167ffffffffffffffff8111156200040c57600080fd5b6200041a8a828b016200037e565b965050604088015167ffffffffffffffff8111156200043857600080fd5b620004468a828b016200037e565b955050606088015167ffffffffffffffff8111156200046457600080fd5b620004728a828b016200037e565b9450506080620004858a828b01620003ab565b93505060a088015167ffffffffffffffff811115620004a357600080fd5b620004b18a828b016200037e565b92505060c0620004c48a828b0162000367565b91505092959891949750929550565b6000620004e26024836200057b565b9150620004ef82620006ef565b604082019050919050565b600060208201905081810360008301526200051581620004d3565b9050919050565b6000620005286200053b565b90506200053682826200064a565b919050565b6000604051905090565b600067ffffffffffffffff821115620005635762000562620006af565b5b6200056e82620006de565b9050602081019050919050565b600082825260208201905092915050565b60006200059982620005b4565b9050919050565b6000620005ad826200058c565b9050919050565b600073ffffffffffffffffffffffffffffffffffffffff82169050919050565b6000819050919050565b60005b83811015620005fe578082015181840152602081019050620005e1565b838111156200060e576000848401525b50505050565b600060028204905060018216806200062d57607f821691505b6020821081141562000644576200064362000680565b5b50919050565b6200065582620006de565b810181811067ffffffffffffffff82111715620006775762000676620006af565b5b80604052505050565b7f4e487b7100000000000000000000000000000000000000000000000000000000600052602260045260246000fd5b7f4e487b7100000000000000000000000000000000000000000000000000000000600052604160045260246000fd5b6000601f19601f8301169050919050565b7f436f666665654c696e652073686f756c6420626520612076616c69642061646460008201527f7265737300000000000000000000000000000000000000000000000000000000602082015250565b62000749816200058c565b81146200075557600080fd5b50565b6200076381620005a0565b81146200076f57600080fd5b50565b6200077d81620005d4565b81146200078957600080fd5b50565b6116fb806200079c6000396000f3fe608060405234801561001057600080fd5b506004361061004c5760003560e01c80631bb48493146100515780633b1158511461006d5780637d3d6ee51461009d578063df84d4b3146100bb575b600080fd5b61006b60048036038101906100669190610d30565b6100d7565b005b61008760048036038101906100829190610c9d565b6102ff565b60405161009491906111e1565b60405180910390f35b6100a5610428565b6040516100b291906111e1565b60405180910390f35b6100d560048036038101906100d09190610c9d565b610454565b005b600360009054906101000a900473ffffffffffffffffffffffffffffffffffffffff1673ffffffffffffffffffffffffffffffffffffffff163373ffffffffffffffffffffffffffffffffffffffff1614610167576040517f08c379a000000000000000000000000000000000000000000000000000000000815260040161015e90611101565b60405180910390fd5b600082116101aa576040517f08c379a00000000000000000000000000000000000000000000000000000000081526004016101a190611161565b60405180910390fd5b600a548211156101ef576040517f08c379a00000000000000000000000000000000000000000000000000000000081526004016101e6906111c1565b60405180910390fd5b60008111610232576040517f08c379a000000000000000000000000000000000000000000000000000000000815260040161022990611121565b60405180910390fd5b60006040518060a0016040528084815260200183815260200185815260200160001515815260200142815250905080600b856040516102719190611016565b9081526020016040518091039020600001600082015181600001556020820151816001015560408201518160020190805190602001906102b2929190610aca565b5060608201518160030160006101000a81548160ff0219169083151502179055506080820151816004015590505082600a60008282546102f2919061128f565b9250508190555050505050565b610307610b50565b6000600260009054906101000a900473ffffffffffffffffffffffffffffffffffffffff1673ffffffffffffffffffffffffffffffffffffffff1663b7fd9562846040518263ffffffff1660e01b8152600401610364919061102d565b60006040518083038186803b15801561037c57600080fd5b505afa158015610390573d6000803e3d6000fd5b505050506040513d6000823e3d601f19601f820116820180604052508101906103b99190610cef565b905060405180606001604052806009548152602001600b836040516103de9190611016565b9081526020016040518091039020600001600401548152602001600b836040516104089190611016565b908152602001604051809103902060050160000154815250915050919050565b610430610b50565b60405180606001604052806009548152602001600081526020016000815250905090565b6000600260009054906101000a900473ffffffffffffffffffffffffffffffffffffffff1673ffffffffffffffffffffffffffffffffffffffff1663b7fd9562336040518263ffffffff1660e01b81526004016104b1919061102d565b60006040518083038186803b1580156104c957600080fd5b505afa1580156104dd573d6000803e3d6000fd5b505050506040513d6000823e3d601f19601f820116820180604052508101906105069190610cef565b90506000600b8260405161051a9190611016565b9081526020016040518091039020600001600001541161056f576040517f08c379a0000000000000000000000000000000000000000000000000000000008152600401610566906110a1565b60405180910390fd5b600b8160405161057f9190611016565b908152602001604051809103902060000160030160009054906101000a900460ff16156105e1576040517f08c379a00000000000000000000000000000000000000000000000000000000081526004016105d890611141565b60405180910390fd5b60008054906101000a900473ffffffffffffffffffffffffffffffffffffffff1673ffffffffffffffffffffffffffffffffffffffff168273ffffffffffffffffffffffffffffffffffffffff1614806106885750600160009054906101000a900473ffffffffffffffffffffffffffffffffffffffff1673ffffffffffffffffffffffffffffffffffffffff168273ffffffffffffffffffffffffffffffffffffffff16145b6106c7576040517f08c379a00000000000000000000000000000000000000000000000000000000081526004016106be906110c1565b60405180910390fd5b61073a33600360009054906101000a900473ffffffffffffffffffffffffffffffffffffffff16600b846040516106fe9190611016565b9081526020016040518091039020600001600101548573ffffffffffffffffffffffffffffffffffffffff166107c4909392919063ffffffff16565b6000604051806020016040528042815250905080600b8360405161075e9190611016565b9081526020016040518091039020600501600082015181600001559050506000600b8360405161078e9190611016565b9081526020016040518091039020600001905060018160030160006101000a81548160ff02191690831515021790555050505050565b610847846323b872dd60e01b8585856040516024016107e593929190611048565b604051602081830303815290604052907bffffffffffffffffffffffffffffffffffffffffffffffffffffffff19166020820180517bffffffffffffffffffffffffffffffffffffffffffffffffffffffff838183161783525050505061084d565b50505050565b60006108af826040518060400160405280602081526020017f5361666545524332303a206c6f772d6c6576656c2063616c6c206661696c65648152508573ffffffffffffffffffffffffffffffffffffffff166109149092919063ffffffff16565b905060008151111561090f57808060200190518101906108cf9190610cc6565b61090e576040517f08c379a0000000000000000000000000000000000000000000000000000000008152600401610905906111a1565b60405180910390fd5b5b505050565b6060610923848460008561092c565b90509392505050565b606082471015610971576040517f08c379a0000000000000000000000000000000000000000000000000000000008152600401610968906110e1565b60405180910390fd5b61097a85610a40565b6109b9576040517f08c379a00000000000000000000000000000000000000000000000000000000081526004016109b090611181565b60405180910390fd5b6000808673ffffffffffffffffffffffffffffffffffffffff1685876040516109e29190610fff565b60006040518083038185875af1925050503d8060008114610a1f576040519150601f19603f3d011682016040523d82523d6000602084013e610a24565b606091505b5091509150610a34828286610a63565b92505050949350505050565b6000808273ffffffffffffffffffffffffffffffffffffffff163b119050919050565b60608315610a7357829050610ac3565b600083511115610a865782518084602001fd5b816040517f08c379a0000000000000000000000000000000000000000000000000000000008152600401610aba919061107f565b60405180910390fd5b9392505050565b828054610ad69061134d565b90600052602060002090601f016020900481019282610af85760008555610b3f565b82601f10610b1157805160ff1916838001178555610b3f565b82800160010185558215610b3f579182015b82811115610b3e578251825591602001919060010190610b23565b5b509050610b4c9190610b71565b5090565b60405180606001604052806000815260200160008152602001600081525090565b5b80821115610b8a576000816000905550600101610b72565b5090565b6000610ba1610b9c84611221565b6111fc565b905082815260208101848484011115610bb957600080fd5b610bc484828561130b565b509392505050565b6000610bdf610bda84611221565b6111fc565b905082815260208101848484011115610bf757600080fd5b610c0284828561131a565b509392505050565b600081359050610c1981611680565b92915050565b600081519050610c2e81611697565b92915050565b600082601f830112610c4557600080fd5b8135610c55848260208601610b8e565b91505092915050565b600082601f830112610c6f57600080fd5b8151610c7f848260208601610bcc565b91505092915050565b600081359050610c97816116ae565b92915050565b600060208284031215610caf57600080fd5b6000610cbd84828501610c0a565b91505092915050565b600060208284031215610cd857600080fd5b6000610ce684828501610c1f565b91505092915050565b600060208284031215610d0157600080fd5b600082015167ffffffffffffffff811115610d1b57600080fd5b610d2784828501610c5e565b91505092915050565b600080600060608486031215610d4557600080fd5b600084013567ffffffffffffffff811115610d5f57600080fd5b610d6b86828701610c34565b9350506020610d7c86828701610c88565b9250506040610d8d86828701610c88565b9150509250925092565b610da0816112c3565b82525050565b6000610db182611252565b610dbb8185611268565b9350610dcb81856020860161131a565b80840191505092915050565b6000610de28261125d565b610dec8185611273565b9350610dfc81856020860161131a565b610e058161143d565b840191505092915050565b6000610e1b8261125d565b610e258185611284565b9350610e3581856020860161131a565b80840191505092915050565b6000610e4e601c83611273565b9150610e598261144e565b602082019050919050565b6000610e71601983611273565b9150610e7c82611477565b602082019050919050565b6000610e94602683611273565b9150610e9f826114a0565b604082019050919050565b6000610eb7602383611273565b9150610ec2826114ef565b604082019050919050565b6000610eda601f83611273565b9150610ee58261153e565b602082019050919050565b6000610efd601883611273565b9150610f0882611567565b602082019050919050565b6000610f20602083611273565b9150610f2b82611590565b602082019050919050565b6000610f43601d83611273565b9150610f4e826115b9565b602082019050919050565b6000610f66602a83611273565b9150610f71826115e2565b604082019050919050565b6000610f89603483611273565b9150610f9482611631565b604082019050919050565b606082016000820151610fb56000850182610fe1565b506020820151610fc86020850182610fe1565b506040820151610fdb6040850182610fe1565b50505050565b610fea81611301565b82525050565b610ff981611301565b82525050565b600061100b8284610da6565b915081905092915050565b60006110228284610e10565b915081905092915050565b60006020820190506110426000830184610d97565b92915050565b600060608201905061105d6000830186610d97565b61106a6020830185610d97565b6110776040830184610ff0565b949350505050565b600060208201905081810360008301526110998184610dd7565b905092915050565b600060208201905081810360008301526110ba81610e41565b9050919050565b600060208201905081810360008301526110da81610e64565b9050919050565b600060208201905081810360008301526110fa81610e87565b9050919050565b6000602082019050818103600083015261111a81610eaa565b9050919050565b6000602082019050818103600083015261113a81610ecd565b9050919050565b6000602082019050818103600083015261115a81610ef0565b9050919050565b6000602082019050818103600083015261117a81610f13565b9050919050565b6000602082019050818103600083015261119a81610f36565b9050919050565b600060208201905081810360008301526111ba81610f59565b9050919050565b600060208201905081810360008301526111da81610f7c565b9050919050565b60006060820190506111f66000830184610f9f565b92915050565b6000611206611217565b9050611212828261137f565b919050565b6000604051905090565b600067ffffffffffffffff82111561123c5761123b61140e565b5b6112458261143d565b9050602081019050919050565b600081519050919050565b600081519050919050565b600081905092915050565b600082825260208201905092915050565b600081905092915050565b600061129a82611301565b91506112a583611301565b9250828210156112b8576112b76113b0565b5b828203905092915050565b60006112ce826112e1565b9050919050565b60008115159050919050565b600073ffffffffffffffffffffffffffffffffffffffff82169050919050565b6000819050919050565b82818337600083830152505050565b60005b8381101561133857808201518184015260208101905061131d565b83811115611347576000848401525b50505050565b6000600282049050600182168061136557607f821691505b60208210811415611379576113786113df565b5b50919050565b6113888261143d565b810181811067ffffffffffffffff821117156113a7576113a661140e565b5b80604052505050565b7f4e487b7100000000000000000000000000000000000000000000000000000000600052601160045260246000fd5b7f4e487b7100000000000000000000000000000000000000000000000000000000600052602260045260246000fd5b7f4e487b7100000000000000000000000000000000000000000000000000000000600052604160045260246000fd5b6000601f19601f8301169050919050565b7f53656c6c20506f736974696f6e20646f6573206e6f7420657869737400000000600082015250565b7f746f6b656e206973206e6f742063455552206f72206355534400000000000000600082015250565b7f416464726573733a20696e73756666696369656e742062616c616e636520666f60008201527f722063616c6c0000000000000000000000000000000000000000000000000000602082015250565b7f4f6e6c79207468652070726f64756365722063616e2073656c6c20697473204260008201527f65616e0000000000000000000000000000000000000000000000000000000000602082015250565b7f5468652070726963652073686f756c64206265207369676e69666963616e7400600082015250565b7f506f736974696f6e20697320616c726561647920736f6c640000000000000000600082015250565b7f54686520616d6f756e742073686f756c64206265207369676e69666963616e74600082015250565b7f416464726573733a2063616c6c20746f206e6f6e2d636f6e7472616374000000600082015250565b7f5361666545524332303a204552433230206f7065726174696f6e20646964206e60008201527f6f74207375636365656400000000000000000000000000000000000000000000602082015250565b7f5468652072656d61696e64657220616d6f756e74206973206c6573732074686160008201527f6e207468652073656c6c696e6720616d6f756e74000000000000000000000000602082015250565b611689816112c3565b811461169457600080fd5b50565b6116a0816112d5565b81146116ab57600080fd5b50565b6116b781611301565b81146116c257600080fd5b5056fea2646970667358221220610842e1842fd9743ec524976bbdab7ddf65dc1b929be29a6459ea0fe2d83b7664736f6c63430008040033",
  "linkReferences": {},
  "deployedLinkReferences": {}
}