{
  "_format": "hh-sol-artifact-1",
  "contractName": "Coffee",
  "sourceName": "contracts/Coffee.sol",
  "abi": [
    {
      "inputs": [
        {
          "components": [
            {
              "internalType": "string",
              "name": "coffeeName",
              "type": "string"
            },
            {
              "internalType": "enum ICoffee.Origin",
              "name": "originType",
              "type": "uint8"
            },
            {
              "internalType": "contract Bean",
              "name": "bean",
              "type": "address"
            },
            {
              "internalType": "enum ICoffee.RoastType",
              "name": "roastType",
              "type": "uint8"
            }
          ],
          "internalType": "struct ICoffeeLine.RoastParams",
          "name": "_params",
          "type": "tuple"
        },
        {
          "internalType": "address",
          "name": "_owner",
          "type": "address"
        }
      ],
      "stateMutability": "nonpayable",
      "type": "constructor"
    },
    {
      "inputs": [],
      "name": "getTimeline",
      "outputs": [
        {
          "components": [
            {
              "internalType": "uint256",
              "name": "creationDate",
              "type": "uint256"
            },
            {
              "internalType": "uint256",
              "name": "sellDate",
              "type": "uint256"
            },
            {
              "internalType": "uint256",
              "name": "acquisitionDate",
              "type": "uint256"
            },
            {
              "internalType": "uint256",
              "name": "roastDate",
              "type": "uint256"
            }
          ],
          "internalType": "struct ICoffee.Timeline",
          "name": "timelineRes",
          "type": "tuple"
        }
      ],
      "stateMutability": "view",
      "type": "function"
    },
    {
      "inputs": [
        {
          "components": [
            {
              "internalType": "uint8",
              "name": "aroma",
              "type": "uint8"
            },
            {
              "internalType": "uint8",
              "name": "acidity",
              "type": "uint8"
            },
            {
              "internalType": "uint8",
              "name": "body",
              "type": "uint8"
            },
            {
              "internalType": "uint8",
              "name": "flavor",
              "type": "uint8"
            },
            {
              "internalType": "uint8",
              "name": "aftertaste",
              "type": "uint8"
            }
          ],
          "internalType": "struct ICoffee.Review",
          "name": "_params",
          "type": "tuple"
        }
      ],
      "name": "review",
      "outputs": [],
      "stateMutability": "nonpayable",
      "type": "function"
    }
  ],
  "bytecode": "0x60806040523480156200001157600080fd5b5060405162000f4038038062000f40833981810160405281019062000037919062000551565b81600001516000908051906020019062000053929190620002bb565b508160200151600160006101000a81548160ff02191690836001811115620000a4577f4e487b7100000000000000000000000000000000000000000000000000000000600052602160045260246000fd5b021790555081604001516001806101000a81548173ffffffffffffffffffffffffffffffffffffffff021916908373ffffffffffffffffffffffffffffffffffffffff1602179055508160600151600160156101000a81548160ff021916908360028111156200013d577f4e487b7100000000000000000000000000000000000000000000000000000000600052602160045260246000fd5b021790555080600260006101000a81548173ffffffffffffffffffffffffffffffffffffffff021916908373ffffffffffffffffffffffffffffffffffffffff160217905550600060018054906101000a900473ffffffffffffffffffffffffffffffffffffffff1673ffffffffffffffffffffffffffffffffffffffff16633b115851600260009054906101000a900473ffffffffffffffffffffffffffffffffffffffff166040518263ffffffff1660e01b8152600401620002029190620005e8565b60606040518083038186803b1580156200021b57600080fd5b505afa15801562000230573d6000803e3d6000fd5b505050506040513d601f19601f82011682018060405250810190620002569190620005ab565b905060405180608001604052808260000151815260200182602001518152602001826040015181526020014281525060046000820151816000015560208201518160010155604082015181600201556060820151816003015590505050505062000837565b828054620002c990620006ec565b90600052602060002090601f016020900481019282620002ed576000855562000339565b82601f106200030857805160ff191683800117855562000339565b8280016001018555821562000339579182015b82811115620003385782518255916020019190600101906200031b565b5b5090506200034891906200034c565b5090565b5b80821115620003675760008160009055506001016200034d565b5090565b6000620003826200037c846200062e565b62000605565b9050828152602081018484840111156200039b57600080fd5b620003a8848285620006b6565b509392505050565b600081519050620003c181620007c7565b92915050565b600081519050620003d881620007e1565b92915050565b600081519050620003ef81620007fb565b92915050565b60008151905062000406816200080c565b92915050565b600082601f8301126200041e57600080fd5b8151620004308482602086016200036b565b91505092915050565b6000608082840312156200044c57600080fd5b62000458608062000605565b9050600082015167ffffffffffffffff8111156200047557600080fd5b62000483848285016200040c565b60008301525060206200049984828501620003de565b6020830152506040620004af84828501620003c7565b6040830152506060620004c584828501620003f5565b60608301525092915050565b600060608284031215620004e457600080fd5b620004f0606062000605565b9050600062000502848285016200053a565b600083015250602062000518848285016200053a565b60208301525060406200052e848285016200053a565b60408301525092915050565b6000815190506200054b816200081d565b92915050565b600080604083850312156200056557600080fd5b600083015167ffffffffffffffff8111156200058057600080fd5b6200058e8582860162000439565b9250506020620005a185828601620003b0565b9150509250929050565b600060608284031215620005be57600080fd5b6000620005ce84828501620004d1565b91505092915050565b620005e28162000664565b82525050565b6000602082019050620005ff6000830184620005d7565b92915050565b60006200061162000624565b90506200061f828262000722565b919050565b6000604051905090565b600067ffffffffffffffff8211156200064c576200064b62000787565b5b6200065782620007b6565b9050602081019050919050565b600062000671826200068c565b9050919050565b6000620006858262000664565b9050919050565b600073ffffffffffffffffffffffffffffffffffffffff82169050919050565b6000819050919050565b60005b83811015620006d6578082015181840152602081019050620006b9565b83811115620006e6576000848401525b50505050565b600060028204905060018216806200070557607f821691505b602082108114156200071c576200071b62000758565b5b50919050565b6200072d82620007b6565b810181811067ffffffffffffffff821117156200074f576200074e62000787565b5b80604052505050565b7f4e487b7100000000000000000000000000000000000000000000000000000000600052602260045260246000fd5b7f4e487b7100000000000000000000000000000000000000000000000000000000600052604160045260246000fd5b6000601f19601f8301169050919050565b620007d28162000664565b8114620007de57600080fd5b50565b620007ec8162000678565b8114620007f857600080fd5b50565b600281106200080957600080fd5b50565b600381106200081a57600080fd5b50565b6200082881620006ac565b81146200083457600080fd5b50565b6106f980620008476000396000f3fe608060405234801561001057600080fd5b50600436106100365760003560e01c8063109873e01461003b5780637d3d6ee514610057575b600080fd5b61005560048036038101906100509190610272565b610075565b005b61005f6101ed565b60405161006c9190610385565b60405180910390f35b600260009054906101000a900473ffffffffffffffffffffffffffffffffffffffff1673ffffffffffffffffffffffffffffffffffffffff163373ffffffffffffffffffffffffffffffffffffffff161415610106576040517f08c379a00000000000000000000000000000000000000000000000000000000081526004016100fd90610345565b60405180910390fd5b6000600360003373ffffffffffffffffffffffffffffffffffffffff1673ffffffffffffffffffffffffffffffffffffffff16815260200190815260200160002060000160009054906101000a900460ff1660ff161461019b576040517f08c379a000000000000000000000000000000000000000000000000000000000815260040161019290610365565b60405180910390fd5b80600360003373ffffffffffffffffffffffffffffffffffffffff1673ffffffffffffffffffffffffffffffffffffffff16815260200190815260200160002081816101e791906105ef565b90505050565b6101f561022f565b6004604051806080016040529081600082015481526020016001820154815260200160028201548152602001600382015481525050905090565b6040518060800160405280600081526020016000815260200160008152602001600081525090565b600060a0828403121561026957600080fd5b81905092915050565b600060a0828403121561028457600080fd5b600061029284828501610257565b91505092915050565b60006102a86013836103a0565b91506102b3826104e4565b602082019050919050565b60006102cb6015836103a0565b91506102d68261050d565b602082019050919050565b6080820160008201516102f76000850182610336565b50602082015161030a6020850182610336565b50604082015161031d6040850182610336565b5060608201516103306060850182610336565b50505050565b61033f816103b1565b82525050565b6000602082019050818103600083015261035e8161029b565b9050919050565b6000602082019050818103600083015261037e816102be565b9050919050565b600060808201905061039a60008301846102e1565b92915050565b600082825260208201905092915050565b6000819050919050565b600060ff82169050919050565b60006103d3826103bb565b9050919050565b6000810160008301806103ec8161048d565b90506103f881846105fd565b50505060008101602083018061040d8161048d565b90506104198184610620565b50505060008101604083018061042e8161048d565b905061043a8184610643565b50505060008101606083018061044f8161048d565b905061045b8184610666565b5050506000810160808301806104708161048d565b905061047c8184610689565b5050505050565b6000819050919050565b6000813561049a816106ac565b80915050919050565b60008160001b9050919050565b60008160101b9050919050565b60008160181b9050919050565b60008160201b9050919050565b60008160081b9050919050565b7f4f776e65722063616e6e6f742072657669657700000000000000000000000000600082015250565b7f52657669657720616c7265616479206578697374730000000000000000000000600082015250565b600060ff610543846104a3565b9350801983169250808416831791505092915050565b600061ff00610567846104d7565b9350801983169250808416831791505092915050565b600062ff000061058c846104b0565b9350801983169250808416831791505092915050565b600063ff0000006105b2846104bd565b9350801983169250808416831791505092915050565b600064ff000000006105d9846104ca565b9350801983169250808416831791505092915050565b6105f982826103da565b5050565b610606826103c8565b61061961061282610483565b8354610536565b8255505050565b610629826103c8565b61063c61063582610483565b8354610559565b8255505050565b61064c826103c8565b61065f61065882610483565b835461057d565b8255505050565b61066f826103c8565b61068261067b82610483565b83546105a2565b8255505050565b610692826103c8565b6106a561069e82610483565b83546105c8565b8255505050565b6106b5816103bb565b81146106c057600080fd5b5056fea2646970667358221220093a5ed30f5eaed726c8aba3212eaede8955f43857fdc3454ccb8a2c645b884764736f6c63430008040033",
  "linkReferences": {},
  "deployedLinkReferences": {}
}