{
  "_format": "hh-sol-artifact-1",
  "contractName": "CoffeeLine",
  "sourceName": "contracts/CoffeeLine.sol",
  "abi": [
    {
      "inputs": [],
      "stateMutability": "nonpayable",
      "type": "constructor"
    },
    {
      "inputs": [
        {
          "internalType": "contract Bean",
          "name": "_bean",
          "type": "address"
        }
      ],
      "name": "acquireBean",
      "outputs": [],
      "stateMutability": "nonpayable",
      "type": "function"
    },
    {
      "inputs": [
        {
          "components": [
            {
              "internalType": "string",
              "name": "coffeeBean",
              "type": "string"
            },
            {
              "internalType": "string",
              "name": "process",
              "type": "string"
            },
            {
              "internalType": "string",
              "name": "varietal",
              "type": "string"
            },
            {
              "internalType": "uint256",
              "name": "weightInKg",
              "type": "uint256"
            },
            {
              "internalType": "string",
              "name": "harvestDate",
              "type": "string"
            }
          ],
          "internalType": "struct ICoffeeLine.BeanParams",
          "name": "_params",
          "type": "tuple"
        }
      ],
      "name": "createBean",
      "outputs": [
        {
          "internalType": "contract Bean",
          "name": "bean",
          "type": "address"
        }
      ],
      "stateMutability": "nonpayable",
      "type": "function"
    },
    {
      "inputs": [
        {
          "components": [
            {
              "internalType": "string",
              "name": "name",
              "type": "string"
            },
            {
              "internalType": "string",
              "name": "farmName",
              "type": "string"
            },
            {
              "internalType": "string",
              "name": "farmAddress",
              "type": "string"
            },
            {
              "internalType": "string",
              "name": "country",
              "type": "string"
            },
            {
              "internalType": "string",
              "name": "email",
              "type": "string"
            },
            {
              "internalType": "string",
              "name": "mobileNumber",
              "type": "string"
            },
            {
              "internalType": "uint256",
              "name": "farmSizeSquareMeters",
              "type": "uint256"
            },
            {
              "internalType": "uint256",
              "name": "farmMASL",
              "type": "uint256"
            },
            {
              "internalType": "uint256",
              "name": "numberOfPeople",
              "type": "uint256"
            },
            {
              "internalType": "string",
              "name": "description",
              "type": "string"
            },
            {
              "internalType": "string[]",
              "name": "images",
              "type": "string[]"
            }
          ],
          "internalType": "struct ICoffeeLine.ProducerParams",
          "name": "_params",
          "type": "tuple"
        }
      ],
      "name": "createProducer",
      "outputs": [
        {
          "components": [
            {
              "internalType": "string",
              "name": "name",
              "type": "string"
            },
            {
              "internalType": "string",
              "name": "farmName",
              "type": "string"
            },
            {
              "internalType": "string",
              "name": "farmAddress",
              "type": "string"
            },
            {
              "internalType": "string",
              "name": "country",
              "type": "string"
            },
            {
              "internalType": "string",
              "name": "email",
              "type": "string"
            },
            {
              "internalType": "string",
              "name": "mobileNumber",
              "type": "string"
            },
            {
              "internalType": "uint256",
              "name": "farmSizeSquareMeters",
              "type": "uint256"
            },
            {
              "internalType": "uint256",
              "name": "farmMASL",
              "type": "uint256"
            },
            {
              "internalType": "uint256",
              "name": "numberOfPeople",
              "type": "uint256"
            },
            {
              "internalType": "string",
              "name": "description",
              "type": "string"
            },
            {
              "internalType": "string[]",
              "name": "images",
              "type": "string[]"
            },
            {
              "internalType": "contract Bean[]",
              "name": "beans",
              "type": "address[]"
            }
          ],
          "internalType": "struct ICoffeeLine.Producer",
          "name": "producer",
          "type": "tuple"
        }
      ],
      "stateMutability": "nonpayable",
      "type": "function"
    },
    {
      "inputs": [
        {
          "components": [
            {
              "internalType": "string",
              "name": "companyName",
              "type": "string"
            },
            {
              "internalType": "string",
              "name": "companyAddress",
              "type": "string"
            },
            {
              "internalType": "string",
              "name": "country",
              "type": "string"
            },
            {
              "internalType": "string",
              "name": "email",
              "type": "string"
            },
            {
              "internalType": "string",
              "name": "mobileNumber",
              "type": "string"
            },
            {
              "internalType": "string",
              "name": "equipment",
              "type": "string"
            },
            {
              "internalType": "string",
              "name": "description",
              "type": "string"
            },
            {
              "internalType": "string",
              "name": "image",
              "type": "string"
            }
          ],
          "internalType": "struct ICoffeeLine.RoasterParams",
          "name": "_params",
          "type": "tuple"
        }
      ],
      "name": "createRoaster",
      "outputs": [
        {
          "components": [
            {
              "internalType": "string",
              "name": "companyName",
              "type": "string"
            },
            {
              "internalType": "string",
              "name": "companyAddress",
              "type": "string"
            },
            {
              "internalType": "string",
              "name": "country",
              "type": "string"
            },
            {
              "internalType": "string",
              "name": "email",
              "type": "string"
            },
            {
              "internalType": "string",
              "name": "mobileNumber",
              "type": "string"
            },
            {
              "internalType": "string",
              "name": "equipment",
              "type": "string"
            },
            {
              "internalType": "string",
              "name": "description",
              "type": "string"
            },
            {
              "internalType": "string",
              "name": "image",
              "type": "string"
            },
            {
              "internalType": "contract Bean[]",
              "name": "beans",
              "type": "address[]"
            },
            {
              "internalType": "contract Coffee[]",
              "name": "coffees",
              "type": "address[]"
            }
          ],
          "internalType": "struct ICoffeeLine.Roaster",
          "name": "roaster",
          "type": "tuple"
        }
      ],
      "stateMutability": "nonpayable",
      "type": "function"
    },
    {
      "inputs": [
        {
          "internalType": "address",
          "name": "_roaster",
          "type": "address"
        }
      ],
      "name": "getRoasterMobileNumber",
      "outputs": [
        {
          "internalType": "string",
          "name": "",
          "type": "string"
        }
      ],
      "stateMutability": "view",
      "type": "function"
    },
    {
      "inputs": [
        {
          "components": [
            {
              "internalType": "string",
              "name": "coffeeName",
              "type": "string"
            },
            {
              "internalType": "enum ICoffee.Origin",
              "name": "originType",
              "type": "uint8"
            },
            {
              "internalType": "contract Bean",
              "name": "bean",
              "type": "address"
            },
            {
              "internalType": "enum ICoffee.RoastType",
              "name": "roastType",
              "type": "uint8"
            }
          ],
          "internalType": "struct ICoffeeLine.RoastParams",
          "name": "_params",
          "type": "tuple"
        }
      ],
      "name": "roast",
      "outputs": [],
      "stateMutability": "nonpayable",
      "type": "function"
    }
  ],
  "bytecode": "0x608060405234801561001057600080fd5b5061535a806100206000396000f3fe60806040523480156200001157600080fd5b50600436106200006a5760003560e01c8063510a51e5146200006f578063af2c03de14620000a5578063b6d03e5214620000c5578063b7fd956214620000fb578063df84d4b31462000131578063f02eaa5c1462000151575b600080fd5b6200008d600480360381019062000087919062001655565b62000187565b6040516200009c919062001f60565b60405180910390f35b620000c36004803603810190620000bd91906200169a565b62000611565b005b620000e36004803603810190620000dd919062001610565b620008a6565b604051620000f2919062001e97565b60405180910390f35b620001196004803603810190620001139190620015b8565b62000a2e565b60405162000128919062001eb4565b60405180910390f35b6200014f6004803603810190620001499190620015e4565b62000b0a565b005b6200016f6004803603810190620001699190620016df565b62000bfd565b6040516200017e919062001fb8565b60405180910390f35b6200019162001177565b6200019b620010c2565b15620001de576040517f08c379a0000000000000000000000000000000000000000000000000000000008152600401620001d59062001ed8565b60405180910390fd5b606080604051806101800160405280858060000190620001ff919062001fdc565b8080601f016020809104026020016040519081016040528093929190818152602001838380828437600081840152601f19601f82011690508083019250505050505050815260200185806020019062000259919062001fdc565b8080601f016020809104026020016040519081016040528093929190818152602001838380828437600081840152601f19601f820116905080830192505050505050508152602001858060400190620002b3919062001fdc565b8080601f016020809104026020016040519081016040528093929190818152602001838380828437600081840152601f19601f8201169050808301925050505050505081526020018580606001906200030d919062001fdc565b8080601f016020809104026020016040519081016040528093929190818152602001838380828437600081840152601f19601f82011690508083019250505050505050815260200185806080019062000367919062001fdc565b8080601f016020809104026020016040519081016040528093929190818152602001838380828437600081840152601f19601f820116905080830192505050505050508152602001858060a00190620003c1919062001fdc565b8080601f016020809104026020016040519081016040528093929190818152602001838380828437600081840152601f19601f8201169050808301925050505050505081526020018560c0013581526020018560e0013581526020018561010001358152602001858061012001906200043b919062001fdc565b8080601f016020809104026020016040519081016040528093929190818152602001838380828437600081840152601f19601f820116905080830192505050505050508152602001838152602001828152509250826000803373ffffffffffffffffffffffffffffffffffffffff1673ffffffffffffffffffffffffffffffffffffffff1681526020019081526020016000206000820151816000019080519060200190620004ec929190620011d8565b5060208201518160010190805190602001906200050b929190620011d8565b5060408201518160020190805190602001906200052a929190620011d8565b50606082015181600301908051906020019062000549929190620011d8565b50608082015181600401908051906020019062000568929190620011d8565b5060a082015181600501908051906020019062000587929190620011d8565b5060c0820151816006015560e082015181600701556101008201518160080155610120820151816009019080519060200190620005c6929190620011d8565b5061014082015181600a019080519060200190620005e692919062001269565b5061016082015181600b01908051906020019062000606929190620012d0565b509050505050919050565b6200061c336200111b565b6200065e576040517f08c379a0000000000000000000000000000000000000000000000000000000008152600401620006559062001efa565b60405180910390fd5b6000600160003373ffffffffffffffffffffffffffffffffffffffff1673ffffffffffffffffffffffffffffffffffffffff16815260200190815260200160002060080180549050905060005b81811015620008a157600160003373ffffffffffffffffffffffffffffffffffffffff1673ffffffffffffffffffffffffffffffffffffffff16815260200190815260200160002060080181815481106200072f577f4e487b7100000000000000000000000000000000000000000000000000000000600052603260045260246000fd5b9060005260206000200160009054906101000a900473ffffffffffffffffffffffffffffffffffffffff1673ffffffffffffffffffffffffffffffffffffffff16836040016020810190620007859190620015e4565b73ffffffffffffffffffffffffffffffffffffffff1614156200088b5760008333604051620007b4906200135f565b620007c192919062001f84565b604051809103906000f080158015620007de573d6000803e3d6000fd5b509050600160003373ffffffffffffffffffffffffffffffffffffffff1673ffffffffffffffffffffffffffffffffffffffff168152602001908152602001600020600901819080600181540180825580915050600190039060005260206000200160009091909190916101000a81548173ffffffffffffffffffffffffffffffffffffffff021916908373ffffffffffffffffffffffffffffffffffffffff16021790555050620008a1565b8080620008989062002339565b915050620006ab565b505050565b6000620008b2620010c2565b620008f4576040517f08c379a0000000000000000000000000000000000000000000000000000000008152600401620008eb9062001f1c565b60405180910390fd5b3382806000019062000907919062001fdc565b84806020019062000919919062001fdc565b8680604001906200092b919062001fdc565b886060013589806080019062000942919062001fdc565b3060405162000951906200136d565b620009679b9a9998979695949392919062001df6565b604051809103906000f08015801562000984573d6000803e3d6000fd5b5090506000803373ffffffffffffffffffffffffffffffffffffffff1673ffffffffffffffffffffffffffffffffffffffff168152602001908152602001600020600b01819080600181540180825580915050600190039060005260206000200160009091909190916101000a81548173ffffffffffffffffffffffffffffffffffffffff021916908373ffffffffffffffffffffffffffffffffffffffff160217905550919050565b6060600160008373ffffffffffffffffffffffffffffffffffffffff1673ffffffffffffffffffffffffffffffffffffffff168152602001908152602001600020600401805462000a7f9062002303565b80601f016020809104026020016040519081016040528092919081815260200182805462000aad9062002303565b801562000afe5780601f1062000ad25761010080835404028352916020019162000afe565b820191906000526020600020905b81548152906001019060200180831162000ae057829003601f168201915b50505050509050919050565b62000b15326200111b565b62000b57576040517f08c379a000000000000000000000000000000000000000000000000000000000815260040162000b4e9062001efa565b60405180910390fd5b600160003273ffffffffffffffffffffffffffffffffffffffff1673ffffffffffffffffffffffffffffffffffffffff168152602001908152602001600020600801819080600181540180825580915050600190039060005260206000200160009091909190916101000a81548173ffffffffffffffffffffffffffffffffffffffff021916908373ffffffffffffffffffffffffffffffffffffffff16021790555050565b62000c076200137b565b62000c12336200111b565b1562000c55576040517f08c379a000000000000000000000000000000000000000000000000000000000815260040162000c4c9062001f3e565b60405180910390fd5b60608060405180610140016040528085806000019062000c76919062001fdc565b8080601f016020809104026020016040519081016040528093929190818152602001838380828437600081840152601f19601f82011690508083019250505050505050815260200185806020019062000cd0919062001fdc565b8080601f016020809104026020016040519081016040528093929190818152602001838380828437600081840152601f19601f82011690508083019250505050505050815260200185806040019062000d2a919062001fdc565b8080601f016020809104026020016040519081016040528093929190818152602001838380828437600081840152601f19601f82011690508083019250505050505050815260200185806060019062000d84919062001fdc565b8080601f016020809104026020016040519081016040528093929190818152602001838380828437600081840152601f19601f82011690508083019250505050505050815260200185806080019062000dde919062001fdc565b8080601f016020809104026020016040519081016040528093929190818152602001838380828437600081840152601f19601f820116905080830192505050505050508152602001858060a0019062000e38919062001fdc565b8080601f016020809104026020016040519081016040528093929190818152602001838380828437600081840152601f19601f820116905080830192505050505050508152602001858060c0019062000e92919062001fdc565b8080601f016020809104026020016040519081016040528093929190818152602001838380828437600081840152601f19601f820116905080830192505050505050508152602001858060e0019062000eec919062001fdc565b8080601f016020809104026020016040519081016040528093929190818152602001838380828437600081840152601f19601f82011690508083019250505050505050815260200183815260200182815250925082600160003373ffffffffffffffffffffffffffffffffffffffff1673ffffffffffffffffffffffffffffffffffffffff168152602001908152602001600020600082015181600001908051906020019062000f9e929190620011d8565b50602082015181600101908051906020019062000fbd929190620011d8565b50604082015181600201908051906020019062000fdc929190620011d8565b50606082015181600301908051906020019062000ffb929190620011d8565b5060808201518160040190805190602001906200101a929190620011d8565b5060a082015181600501908051906020019062001039929190620011d8565b5060c082015181600601908051906020019062001058929190620011d8565b5060e082015181600701908051906020019062001077929190620011d8565b5061010082015181600801908051906020019062001097929190620012d0565b50610120820151816009019080519060200190620010b7929190620013ce565b509050505050919050565b6000806000803373ffffffffffffffffffffffffffffffffffffffff1673ffffffffffffffffffffffffffffffffffffffff1681526020019081526020016000206000018054620011139062002303565b905011905090565b600080600160008473ffffffffffffffffffffffffffffffffffffffff1673ffffffffffffffffffffffffffffffffffffffff16815260200190815260200160002060000180546200116d9062002303565b9050119050919050565b6040518061018001604052806060815260200160608152602001606081526020016060815260200160608152602001606081526020016000815260200160008152602001600081526020016060815260200160608152602001606081525090565b828054620011e69062002303565b90600052602060002090601f0160209004810192826200120a576000855562001256565b82601f106200122557805160ff191683800117855562001256565b8280016001018555821562001256579182015b828111156200125557825182559160200191906001019062001238565b5b5090506200126591906200145d565b5090565b828054828255906000526020600020908101928215620012bd579160200282015b82811115620012bc578251829080519060200190620012ab929190620011d8565b50916020019190600101906200128a565b5b509050620012cc91906200147c565b5090565b8280548282559060005260206000209081019282156200134c579160200282015b828111156200134b5782518260006101000a81548173ffffffffffffffffffffffffffffffffffffffff021916908373ffffffffffffffffffffffffffffffffffffffff16021790555091602001919060010190620012f1565b5b5090506200135b91906200145d565b5090565b610f40806200254e83390190565b611e97806200348e83390190565b604051806101400160405280606081526020016060815260200160608152602001606081526020016060815260200160608152602001606081526020016060815260200160608152602001606081525090565b8280548282559060005260206000209081019282156200144a579160200282015b82811115620014495782518260006101000a81548173ffffffffffffffffffffffffffffffffffffffff021916908373ffffffffffffffffffffffffffffffffffffffff16021790555091602001919060010190620013ef565b5b5090506200145991906200145d565b5090565b5b80821115620014785760008160009055506001016200145e565b5090565b5b80821115620014a05760008181620014969190620014a4565b506001016200147d565b5090565b508054620014b29062002303565b6000825580601f10620014c65750620014e7565b601f016020900490600052602060002090810190620014e691906200145d565b5b50565b600081359050620014fb81620024f7565b92915050565b600081359050620015128162002511565b92915050565b60008135905062001529816200252b565b92915050565b60008135905062001540816200253c565b92915050565b600060a082840312156200155957600080fd5b81905092915050565b600061016082840312156200157657600080fd5b81905092915050565b6000608082840312156200159257600080fd5b81905092915050565b60006101008284031215620015af57600080fd5b81905092915050565b600060208284031215620015cb57600080fd5b6000620015db84828501620014ea565b91505092915050565b600060208284031215620015f757600080fd5b6000620016078482850162001501565b91505092915050565b6000602082840312156200162357600080fd5b600082013567ffffffffffffffff8111156200163e57600080fd5b6200164c8482850162001546565b91505092915050565b6000602082840312156200166857600080fd5b600082013567ffffffffffffffff8111156200168357600080fd5b620016918482850162001562565b91505092915050565b600060208284031215620016ad57600080fd5b600082013567ffffffffffffffff811115620016c857600080fd5b620016d6848285016200157f565b91505092915050565b600060208284031215620016f257600080fd5b600082013567ffffffffffffffff8111156200170d57600080fd5b6200171b848285016200159b565b91505092915050565b6000620017328383620018d4565b60208301905092915050565b60006200174c838362001907565b60208301905092915050565b6000620017668383620019a0565b905092915050565b6200177981620021a2565b82525050565b60006200178c8262002066565b620017988185620020b9565b9350620017a58362002036565b8060005b83811015620017dc578151620017c0888262001724565b9750620017cd8362002092565b925050600181019050620017a9565b5085935050505092915050565b6000620017f68262002071565b620018028185620020b9565b93506200180f8362002046565b8060005b83811015620018465781516200182a88826200173e565b975062001837836200209f565b92505060018101905062001813565b5085935050505092915050565b600062001860826200207c565b6200186c8185620020ca565b935083602082028501620018808562002056565b8060005b85811015620018c25784840389528151620018a0858262001758565b9450620018ad83620020ac565b925060208a0199505060018101905062001884565b50829750879550505050505092915050565b620018df816200221e565b82525050565b620018f0816200221e565b82525050565b620019018162002246565b82525050565b62001912816200226e565b82525050565b620019238162002296565b82525050565b6200193481620022aa565b82525050565b6000620019488385620020db565b935062001957838584620022be565b620019628362002414565b840190509392505050565b60006200197b8385620020ec565b93506200198a838584620022be565b620019958362002414565b840190509392505050565b6000620019ad8262002087565b620019b98185620020db565b9350620019cb818560208601620022cd565b620019d68162002414565b840191505092915050565b6000620019ee8262002087565b620019fa8185620020ec565b935062001a0c818560208601620022cd565b62001a178162002414565b840191505092915050565b600062001a31601783620020ec565b915062001a3e8262002425565b602082019050919050565b600062001a58601683620020ec565b915062001a65826200244e565b602082019050919050565b600062001a7f601783620020ec565b915062001a8c8262002477565b602082019050919050565b600062001aa6601683620020ec565b915062001ab382620024a0565b602082019050919050565b600061018083016000830151848203600086015262001ade8282620019a0565b9150506020830151848203602086015262001afa8282620019a0565b9150506040830151848203604086015262001b168282620019a0565b9150506060830151848203606086015262001b328282620019a0565b9150506080830151848203608086015262001b4e8282620019a0565b91505060a083015184820360a086015262001b6a8282620019a0565b91505060c083015162001b8160c086018262001dd4565b5060e083015162001b9660e086018262001dd4565b5061010083015162001bad61010086018262001dd4565b5061012083015184820361012086015262001bc98282620019a0565b91505061014083015184820361014086015262001be7828262001853565b91505061016083015184820361016086015262001c0582826200177f565b9150508091505092915050565b60006080830162001c27600084018462002148565b858303600087015262001c3c8382846200193a565b9250505062001c4f602084018462002116565b62001c5e602086018262001918565b5062001c6e6040840184620020fd565b62001c7d6040860182620018d4565b5062001c8d60608401846200212f565b62001c9c606086018262001929565b508091505092915050565b600061014083016000830151848203600086015262001cc78282620019a0565b9150506020830151848203602086015262001ce38282620019a0565b9150506040830151848203604086015262001cff8282620019a0565b9150506060830151848203606086015262001d1b8282620019a0565b9150506080830151848203608086015262001d378282620019a0565b91505060a083015184820360a086015262001d538282620019a0565b91505060c083015184820360c086015262001d6f8282620019a0565b91505060e083015184820360e086015262001d8b8282620019a0565b91505061010083015184820361010086015262001da982826200177f565b91505061012083015184820361012086015262001dc78282620017e9565b9150508091505092915050565b62001ddf8162002214565b82525050565b62001df08162002214565b82525050565b600060e08201905062001e0d600083018e6200176e565b818103602083015262001e22818c8e6200196d565b9050818103604083015262001e39818a8c6200196d565b9050818103606083015262001e5081888a6200196d565b905062001e61608083018762001de5565b81810360a083015262001e768185876200196d565b905062001e8760c0830184620018f6565b9c9b505050505050505050505050565b600060208201905062001eae6000830184620018e5565b92915050565b6000602082019050818103600083015262001ed08184620019e1565b905092915050565b6000602082019050818103600083015262001ef38162001a22565b9050919050565b6000602082019050818103600083015262001f158162001a49565b9050919050565b6000602082019050818103600083015262001f378162001a70565b9050919050565b6000602082019050818103600083015262001f598162001a97565b9050919050565b6000602082019050818103600083015262001f7c818462001abe565b905092915050565b6000604082019050818103600083015262001fa0818562001c12565b905062001fb160208301846200176e565b9392505050565b6000602082019050818103600083015262001fd4818462001ca7565b905092915050565b6000808335600160200384360303811262001ff657600080fd5b80840192508235915067ffffffffffffffff8211156200201557600080fd5b6020830192506001820236038313156200202e57600080fd5b509250929050565b6000819050602082019050919050565b6000819050602082019050919050565b6000819050602082019050919050565b600081519050919050565b600081519050919050565b600081519050919050565b600081519050919050565b6000602082019050919050565b6000602082019050919050565b6000602082019050919050565b600082825260208201905092915050565b600082825260208201905092915050565b600082825260208201905092915050565b600082825260208201905092915050565b60006200210e602084018462001501565b905092915050565b600062002127602084018462001518565b905092915050565b60006200214060208401846200152f565b905092915050565b600080833560016020038436030381126200216257600080fd5b83810192508235915060208301925067ffffffffffffffff8211156200218757600080fd5b6001820236038413156200219a57600080fd5b509250929050565b6000620021af82620021f4565b9050919050565b6000620021c382620021a2565b9050919050565b6000819050620021da82620024c9565b919050565b6000819050620021ef82620024e0565b919050565b600073ffffffffffffffffffffffffffffffffffffffff82169050919050565b6000819050919050565b60006200222b8262002232565b9050919050565b60006200223f82620021f4565b9050919050565b600062002253826200225a565b9050919050565b60006200226782620021f4565b9050919050565b60006200227b8262002282565b9050919050565b60006200228f82620021f4565b9050919050565b6000620022a382620021ca565b9050919050565b6000620022b782620021df565b9050919050565b82818337600083830152505050565b60005b83811015620022ed578082015181840152602081019050620022d0565b83811115620022fd576000848401525b50505050565b600060028204905060018216806200231c57607f821691505b60208210811415620023335762002332620023e5565b5b50919050565b6000620023468262002214565b91507fffffffffffffffffffffffffffffffffffffffffffffffffffffffffffffffff8214156200237c576200237b62002387565b5b600182019050919050565b7f4e487b7100000000000000000000000000000000000000000000000000000000600052601160045260246000fd5b7f4e487b7100000000000000000000000000000000000000000000000000000000600052602160045260246000fd5b7f4e487b7100000000000000000000000000000000000000000000000000000000600052602260045260246000fd5b6000601f19601f8301169050919050565b7f50726f647563657220616c726561647920657869737473000000000000000000600082015250565b7f526f617374657220646f6573206e6f7420657869737400000000000000000000600082015250565b7f50726f647563657220646f6573206e6f74206578697374000000000000000000600082015250565b7f526f617374657220616c72656164792065786973747300000000000000000000600082015250565b60028110620024dd57620024dc620023b6565b5b50565b60038110620024f457620024f3620023b6565b5b50565b6200250281620021a2565b81146200250e57600080fd5b50565b6200251c81620021b6565b81146200252857600080fd5b50565b600281106200253957600080fd5b50565b600381106200254a57600080fd5b5056fe60806040523480156200001157600080fd5b5060405162000f4038038062000f40833981810160405281019062000037919062000551565b81600001516000908051906020019062000053929190620002bb565b508160200151600160006101000a81548160ff02191690836001811115620000a4577f4e487b7100000000000000000000000000000000000000000000000000000000600052602160045260246000fd5b021790555081604001516001806101000a81548173ffffffffffffffffffffffffffffffffffffffff021916908373ffffffffffffffffffffffffffffffffffffffff1602179055508160600151600160156101000a81548160ff021916908360028111156200013d577f4e487b7100000000000000000000000000000000000000000000000000000000600052602160045260246000fd5b021790555080600260006101000a81548173ffffffffffffffffffffffffffffffffffffffff021916908373ffffffffffffffffffffffffffffffffffffffff160217905550600060018054906101000a900473ffffffffffffffffffffffffffffffffffffffff1673ffffffffffffffffffffffffffffffffffffffff16633b115851600260009054906101000a900473ffffffffffffffffffffffffffffffffffffffff166040518263ffffffff1660e01b8152600401620002029190620005e8565b60606040518083038186803b1580156200021b57600080fd5b505afa15801562000230573d6000803e3d6000fd5b505050506040513d601f19601f82011682018060405250810190620002569190620005ab565b905060405180608001604052808260000151815260200182602001518152602001826040015181526020014281525060046000820151816000015560208201518160010155604082015181600201556060820151816003015590505050505062000837565b828054620002c990620006ec565b90600052602060002090601f016020900481019282620002ed576000855562000339565b82601f106200030857805160ff191683800117855562000339565b8280016001018555821562000339579182015b82811115620003385782518255916020019190600101906200031b565b5b5090506200034891906200034c565b5090565b5b80821115620003675760008160009055506001016200034d565b5090565b6000620003826200037c846200062e565b62000605565b9050828152602081018484840111156200039b57600080fd5b620003a8848285620006b6565b509392505050565b600081519050620003c181620007c7565b92915050565b600081519050620003d881620007e1565b92915050565b600081519050620003ef81620007fb565b92915050565b60008151905062000406816200080c565b92915050565b600082601f8301126200041e57600080fd5b8151620004308482602086016200036b565b91505092915050565b6000608082840312156200044c57600080fd5b62000458608062000605565b9050600082015167ffffffffffffffff8111156200047557600080fd5b62000483848285016200040c565b60008301525060206200049984828501620003de565b6020830152506040620004af84828501620003c7565b6040830152506060620004c584828501620003f5565b60608301525092915050565b600060608284031215620004e457600080fd5b620004f0606062000605565b9050600062000502848285016200053a565b600083015250602062000518848285016200053a565b60208301525060406200052e848285016200053a565b60408301525092915050565b6000815190506200054b816200081d565b92915050565b600080604083850312156200056557600080fd5b600083015167ffffffffffffffff8111156200058057600080fd5b6200058e8582860162000439565b9250506020620005a185828601620003b0565b9150509250929050565b600060608284031215620005be57600080fd5b6000620005ce84828501620004d1565b91505092915050565b620005e28162000664565b82525050565b6000602082019050620005ff6000830184620005d7565b92915050565b60006200061162000624565b90506200061f828262000722565b919050565b6000604051905090565b600067ffffffffffffffff8211156200064c576200064b62000787565b5b6200065782620007b6565b9050602081019050919050565b600062000671826200068c565b9050919050565b6000620006858262000664565b9050919050565b600073ffffffffffffffffffffffffffffffffffffffff82169050919050565b6000819050919050565b60005b83811015620006d6578082015181840152602081019050620006b9565b83811115620006e6576000848401525b50505050565b600060028204905060018216806200070557607f821691505b602082108114156200071c576200071b62000758565b5b50919050565b6200072d82620007b6565b810181811067ffffffffffffffff821117156200074f576200074e62000787565b5b80604052505050565b7f4e487b7100000000000000000000000000000000000000000000000000000000600052602260045260246000fd5b7f4e487b7100000000000000000000000000000000000000000000000000000000600052604160045260246000fd5b6000601f19601f8301169050919050565b620007d28162000664565b8114620007de57600080fd5b50565b620007ec8162000678565b8114620007f857600080fd5b50565b600281106200080957600080fd5b50565b600381106200081a57600080fd5b50565b6200082881620006ac565b81146200083457600080fd5b50565b6106f980620008476000396000f3fe608060405234801561001057600080fd5b50600436106100365760003560e01c8063109873e01461003b5780637d3d6ee514610057575b600080fd5b61005560048036038101906100509190610272565b610075565b005b61005f6101ed565b60405161006c9190610385565b60405180910390f35b600260009054906101000a900473ffffffffffffffffffffffffffffffffffffffff1673ffffffffffffffffffffffffffffffffffffffff163373ffffffffffffffffffffffffffffffffffffffff161415610106576040517f08c379a00000000000000000000000000000000000000000000000000000000081526004016100fd90610345565b60405180910390fd5b6000600360003373ffffffffffffffffffffffffffffffffffffffff1673ffffffffffffffffffffffffffffffffffffffff16815260200190815260200160002060000160009054906101000a900460ff1660ff161461019b576040517f08c379a000000000000000000000000000000000000000000000000000000000815260040161019290610365565b60405180910390fd5b80600360003373ffffffffffffffffffffffffffffffffffffffff1673ffffffffffffffffffffffffffffffffffffffff16815260200190815260200160002081816101e791906105ef565b90505050565b6101f561022f565b6004604051806080016040529081600082015481526020016001820154815260200160028201548152602001600382015481525050905090565b6040518060800160405280600081526020016000815260200160008152602001600081525090565b600060a0828403121561026957600080fd5b81905092915050565b600060a0828403121561028457600080fd5b600061029284828501610257565b91505092915050565b60006102a86013836103a0565b91506102b3826104e4565b602082019050919050565b60006102cb6015836103a0565b91506102d68261050d565b602082019050919050565b6080820160008201516102f76000850182610336565b50602082015161030a6020850182610336565b50604082015161031d6040850182610336565b5060608201516103306060850182610336565b50505050565b61033f816103b1565b82525050565b6000602082019050818103600083015261035e8161029b565b9050919050565b6000602082019050818103600083015261037e816102be565b9050919050565b600060808201905061039a60008301846102e1565b92915050565b600082825260208201905092915050565b6000819050919050565b600060ff82169050919050565b60006103d3826103bb565b9050919050565b6000810160008301806103ec8161048d565b90506103f881846105fd565b50505060008101602083018061040d8161048d565b90506104198184610620565b50505060008101604083018061042e8161048d565b905061043a8184610643565b50505060008101606083018061044f8161048d565b905061045b8184610666565b5050506000810160808301806104708161048d565b905061047c8184610689565b5050505050565b6000819050919050565b6000813561049a816106ac565b80915050919050565b60008160001b9050919050565b60008160101b9050919050565b60008160181b9050919050565b60008160201b9050919050565b60008160081b9050919050565b7f4f776e65722063616e6e6f742072657669657700000000000000000000000000600082015250565b7f52657669657720616c7265616479206578697374730000000000000000000000600082015250565b600060ff610543846104a3565b9350801983169250808416831791505092915050565b600061ff00610567846104d7565b9350801983169250808416831791505092915050565b600062ff000061058c846104b0565b9350801983169250808416831791505092915050565b600063ff0000006105b2846104bd565b9350801983169250808416831791505092915050565b600064ff000000006105d9846104ca565b9350801983169250808416831791505092915050565b6105f982826103da565b5050565b610606826103c8565b61061961061282610483565b8354610536565b8255505050565b610629826103c8565b61063c61063582610483565b8354610559565b8255505050565b61064c826103c8565b61065f61065882610483565b835461057d565b8255505050565b61066f826103c8565b61068261067b82610483565b83546105a2565b8255505050565b610692826103c8565b6106a561069e82610483565b83546105c8565b8255505050565b6106b5816103bb565b81146106c057600080fd5b5056fea2646970667358221220093a5ed30f5eaed726c8aba3212eaede8955f43857fdc3454ccb8a2c645b884764736f6c6343000804003360806040527310c892a6ec43a53e45d0b916b4b7d383b1b78c0f6000806101000a81548173ffffffffffffffffffffffffffffffffffffffff021916908373ffffffffffffffffffffffffffffffffffffffff16021790555073874069fa1eb16d44d622f2e0ca25eea172369bc1600160006101000a81548173ffffffffffffffffffffffffffffffffffffffff021916908373ffffffffffffffffffffffffffffffffffffffff160217905550348015620000ba57600080fd5b5060405162001e9738038062001e978339818101604052810190620000e09190620003c2565b600073ffffffffffffffffffffffffffffffffffffffff168173ffffffffffffffffffffffffffffffffffffffff16141562000153576040517f08c379a00000000000000000000000000000000000000000000000000000000081526004016200014a90620004fa565b60405180910390fd5b86600360006101000a81548173ffffffffffffffffffffffffffffffffffffffff021916908373ffffffffffffffffffffffffffffffffffffffff1602179055508560049080519060200190620001ac9291906200025b565b508460059080519060200190620001c59291906200025b565b508360069080519060200190620001de9291906200025b565b50826007819055508160089080519060200190620001fe9291906200025b565b504260098190555082600a8190555080600260006101000a81548173ffffffffffffffffffffffffffffffffffffffff021916908373ffffffffffffffffffffffffffffffffffffffff160217905550505050505050506200078c565b828054620002699062000614565b90600052602060002090601f0160209004810192826200028d5760008555620002d9565b82601f10620002a857805160ff1916838001178555620002d9565b82800160010185558215620002d9579182015b82811115620002d8578251825591602001919060010190620002bb565b5b509050620002e89190620002ec565b5090565b5b8082111562000307576000816000905550600101620002ed565b5090565b6000620003226200031c8462000545565b6200051c565b9050828152602081018484840111156200033b57600080fd5b62000348848285620005de565b509392505050565b60008151905062000361816200073e565b92915050565b600081519050620003788162000758565b92915050565b600082601f8301126200039057600080fd5b8151620003a28482602086016200030b565b91505092915050565b600081519050620003bc8162000772565b92915050565b600080600080600080600060e0888a031215620003de57600080fd5b6000620003ee8a828b0162000350565b975050602088015167ffffffffffffffff8111156200040c57600080fd5b6200041a8a828b016200037e565b965050604088015167ffffffffffffffff8111156200043857600080fd5b620004468a828b016200037e565b955050606088015167ffffffffffffffff8111156200046457600080fd5b620004728a828b016200037e565b9450506080620004858a828b01620003ab565b93505060a088015167ffffffffffffffff811115620004a357600080fd5b620004b18a828b016200037e565b92505060c0620004c48a828b0162000367565b91505092959891949750929550565b6000620004e26024836200057b565b9150620004ef82620006ef565b604082019050919050565b600060208201905081810360008301526200051581620004d3565b9050919050565b6000620005286200053b565b90506200053682826200064a565b919050565b6000604051905090565b600067ffffffffffffffff821115620005635762000562620006af565b5b6200056e82620006de565b9050602081019050919050565b600082825260208201905092915050565b60006200059982620005b4565b9050919050565b6000620005ad826200058c565b9050919050565b600073ffffffffffffffffffffffffffffffffffffffff82169050919050565b6000819050919050565b60005b83811015620005fe578082015181840152602081019050620005e1565b838111156200060e576000848401525b50505050565b600060028204905060018216806200062d57607f821691505b6020821081141562000644576200064362000680565b5b50919050565b6200065582620006de565b810181811067ffffffffffffffff82111715620006775762000676620006af565b5b80604052505050565b7f4e487b7100000000000000000000000000000000000000000000000000000000600052602260045260246000fd5b7f4e487b7100000000000000000000000000000000000000000000000000000000600052604160045260246000fd5b6000601f19601f8301169050919050565b7f436f666665654c696e652073686f756c6420626520612076616c69642061646460008201527f7265737300000000000000000000000000000000000000000000000000000000602082015250565b62000749816200058c565b81146200075557600080fd5b50565b6200076381620005a0565b81146200076f57600080fd5b50565b6200077d81620005d4565b81146200078957600080fd5b50565b6116fb806200079c6000396000f3fe608060405234801561001057600080fd5b506004361061004c5760003560e01c80631bb48493146100515780633b1158511461006d5780637d3d6ee51461009d578063df84d4b3146100bb575b600080fd5b61006b60048036038101906100669190610d30565b6100d7565b005b61008760048036038101906100829190610c9d565b6102ff565b60405161009491906111e1565b60405180910390f35b6100a5610428565b6040516100b291906111e1565b60405180910390f35b6100d560048036038101906100d09190610c9d565b610454565b005b600360009054906101000a900473ffffffffffffffffffffffffffffffffffffffff1673ffffffffffffffffffffffffffffffffffffffff163373ffffffffffffffffffffffffffffffffffffffff1614610167576040517f08c379a000000000000000000000000000000000000000000000000000000000815260040161015e90611101565b60405180910390fd5b600082116101aa576040517f08c379a00000000000000000000000000000000000000000000000000000000081526004016101a190611161565b60405180910390fd5b600a548211156101ef576040517f08c379a00000000000000000000000000000000000000000000000000000000081526004016101e6906111c1565b60405180910390fd5b60008111610232576040517f08c379a000000000000000000000000000000000000000000000000000000000815260040161022990611121565b60405180910390fd5b60006040518060a0016040528084815260200183815260200185815260200160001515815260200142815250905080600b856040516102719190611016565b9081526020016040518091039020600001600082015181600001556020820151816001015560408201518160020190805190602001906102b2929190610aca565b5060608201518160030160006101000a81548160ff0219169083151502179055506080820151816004015590505082600a60008282546102f2919061128f565b9250508190555050505050565b610307610b50565b6000600260009054906101000a900473ffffffffffffffffffffffffffffffffffffffff1673ffffffffffffffffffffffffffffffffffffffff1663b7fd9562846040518263ffffffff1660e01b8152600401610364919061102d565b60006040518083038186803b15801561037c57600080fd5b505afa158015610390573d6000803e3d6000fd5b505050506040513d6000823e3d601f19601f820116820180604052508101906103b99190610cef565b905060405180606001604052806009548152602001600b836040516103de9190611016565b9081526020016040518091039020600001600401548152602001600b836040516104089190611016565b908152602001604051809103902060050160000154815250915050919050565b610430610b50565b60405180606001604052806009548152602001600081526020016000815250905090565b6000600260009054906101000a900473ffffffffffffffffffffffffffffffffffffffff1673ffffffffffffffffffffffffffffffffffffffff1663b7fd9562336040518263ffffffff1660e01b81526004016104b1919061102d565b60006040518083038186803b1580156104c957600080fd5b505afa1580156104dd573d6000803e3d6000fd5b505050506040513d6000823e3d601f19601f820116820180604052508101906105069190610cef565b90506000600b8260405161051a9190611016565b9081526020016040518091039020600001600001541161056f576040517f08c379a0000000000000000000000000000000000000000000000000000000008152600401610566906110a1565b60405180910390fd5b600b8160405161057f9190611016565b908152602001604051809103902060000160030160009054906101000a900460ff16156105e1576040517f08c379a00000000000000000000000000000000000000000000000000000000081526004016105d890611141565b60405180910390fd5b60008054906101000a900473ffffffffffffffffffffffffffffffffffffffff1673ffffffffffffffffffffffffffffffffffffffff168273ffffffffffffffffffffffffffffffffffffffff1614806106885750600160009054906101000a900473ffffffffffffffffffffffffffffffffffffffff1673ffffffffffffffffffffffffffffffffffffffff168273ffffffffffffffffffffffffffffffffffffffff16145b6106c7576040517f08c379a00000000000000000000000000000000000000000000000000000000081526004016106be906110c1565b60405180910390fd5b61073a33600360009054906101000a900473ffffffffffffffffffffffffffffffffffffffff16600b846040516106fe9190611016565b9081526020016040518091039020600001600101548573ffffffffffffffffffffffffffffffffffffffff166107c4909392919063ffffffff16565b6000604051806020016040528042815250905080600b8360405161075e9190611016565b9081526020016040518091039020600501600082015181600001559050506000600b8360405161078e9190611016565b9081526020016040518091039020600001905060018160030160006101000a81548160ff02191690831515021790555050505050565b610847846323b872dd60e01b8585856040516024016107e593929190611048565b604051602081830303815290604052907bffffffffffffffffffffffffffffffffffffffffffffffffffffffff19166020820180517bffffffffffffffffffffffffffffffffffffffffffffffffffffffff838183161783525050505061084d565b50505050565b60006108af826040518060400160405280602081526020017f5361666545524332303a206c6f772d6c6576656c2063616c6c206661696c65648152508573ffffffffffffffffffffffffffffffffffffffff166109149092919063ffffffff16565b905060008151111561090f57808060200190518101906108cf9190610cc6565b61090e576040517f08c379a0000000000000000000000000000000000000000000000000000000008152600401610905906111a1565b60405180910390fd5b5b505050565b6060610923848460008561092c565b90509392505050565b606082471015610971576040517f08c379a0000000000000000000000000000000000000000000000000000000008152600401610968906110e1565b60405180910390fd5b61097a85610a40565b6109b9576040517f08c379a00000000000000000000000000000000000000000000000000000000081526004016109b090611181565b60405180910390fd5b6000808673ffffffffffffffffffffffffffffffffffffffff1685876040516109e29190610fff565b60006040518083038185875af1925050503d8060008114610a1f576040519150601f19603f3d011682016040523d82523d6000602084013e610a24565b606091505b5091509150610a34828286610a63565b92505050949350505050565b6000808273ffffffffffffffffffffffffffffffffffffffff163b119050919050565b60608315610a7357829050610ac3565b600083511115610a865782518084602001fd5b816040517f08c379a0000000000000000000000000000000000000000000000000000000008152600401610aba919061107f565b60405180910390fd5b9392505050565b828054610ad69061134d565b90600052602060002090601f016020900481019282610af85760008555610b3f565b82601f10610b1157805160ff1916838001178555610b3f565b82800160010185558215610b3f579182015b82811115610b3e578251825591602001919060010190610b23565b5b509050610b4c9190610b71565b5090565b60405180606001604052806000815260200160008152602001600081525090565b5b80821115610b8a576000816000905550600101610b72565b5090565b6000610ba1610b9c84611221565b6111fc565b905082815260208101848484011115610bb957600080fd5b610bc484828561130b565b509392505050565b6000610bdf610bda84611221565b6111fc565b905082815260208101848484011115610bf757600080fd5b610c0284828561131a565b509392505050565b600081359050610c1981611680565b92915050565b600081519050610c2e81611697565b92915050565b600082601f830112610c4557600080fd5b8135610c55848260208601610b8e565b91505092915050565b600082601f830112610c6f57600080fd5b8151610c7f848260208601610bcc565b91505092915050565b600081359050610c97816116ae565b92915050565b600060208284031215610caf57600080fd5b6000610cbd84828501610c0a565b91505092915050565b600060208284031215610cd857600080fd5b6000610ce684828501610c1f565b91505092915050565b600060208284031215610d0157600080fd5b600082015167ffffffffffffffff811115610d1b57600080fd5b610d2784828501610c5e565b91505092915050565b600080600060608486031215610d4557600080fd5b600084013567ffffffffffffffff811115610d5f57600080fd5b610d6b86828701610c34565b9350506020610d7c86828701610c88565b9250506040610d8d86828701610c88565b9150509250925092565b610da0816112c3565b82525050565b6000610db182611252565b610dbb8185611268565b9350610dcb81856020860161131a565b80840191505092915050565b6000610de28261125d565b610dec8185611273565b9350610dfc81856020860161131a565b610e058161143d565b840191505092915050565b6000610e1b8261125d565b610e258185611284565b9350610e3581856020860161131a565b80840191505092915050565b6000610e4e601c83611273565b9150610e598261144e565b602082019050919050565b6000610e71601983611273565b9150610e7c82611477565b602082019050919050565b6000610e94602683611273565b9150610e9f826114a0565b604082019050919050565b6000610eb7602383611273565b9150610ec2826114ef565b604082019050919050565b6000610eda601f83611273565b9150610ee58261153e565b602082019050919050565b6000610efd601883611273565b9150610f0882611567565b602082019050919050565b6000610f20602083611273565b9150610f2b82611590565b602082019050919050565b6000610f43601d83611273565b9150610f4e826115b9565b602082019050919050565b6000610f66602a83611273565b9150610f71826115e2565b604082019050919050565b6000610f89603483611273565b9150610f9482611631565b604082019050919050565b606082016000820151610fb56000850182610fe1565b506020820151610fc86020850182610fe1565b506040820151610fdb6040850182610fe1565b50505050565b610fea81611301565b82525050565b610ff981611301565b82525050565b600061100b8284610da6565b915081905092915050565b60006110228284610e10565b915081905092915050565b60006020820190506110426000830184610d97565b92915050565b600060608201905061105d6000830186610d97565b61106a6020830185610d97565b6110776040830184610ff0565b949350505050565b600060208201905081810360008301526110998184610dd7565b905092915050565b600060208201905081810360008301526110ba81610e41565b9050919050565b600060208201905081810360008301526110da81610e64565b9050919050565b600060208201905081810360008301526110fa81610e87565b9050919050565b6000602082019050818103600083015261111a81610eaa565b9050919050565b6000602082019050818103600083015261113a81610ecd565b9050919050565b6000602082019050818103600083015261115a81610ef0565b9050919050565b6000602082019050818103600083015261117a81610f13565b9050919050565b6000602082019050818103600083015261119a81610f36565b9050919050565b600060208201905081810360008301526111ba81610f59565b9050919050565b600060208201905081810360008301526111da81610f7c565b9050919050565b60006060820190506111f66000830184610f9f565b92915050565b6000611206611217565b9050611212828261137f565b919050565b6000604051905090565b600067ffffffffffffffff82111561123c5761123b61140e565b5b6112458261143d565b9050602081019050919050565b600081519050919050565b600081519050919050565b600081905092915050565b600082825260208201905092915050565b600081905092915050565b600061129a82611301565b91506112a583611301565b9250828210156112b8576112b76113b0565b5b828203905092915050565b60006112ce826112e1565b9050919050565b60008115159050919050565b600073ffffffffffffffffffffffffffffffffffffffff82169050919050565b6000819050919050565b82818337600083830152505050565b60005b8381101561133857808201518184015260208101905061131d565b83811115611347576000848401525b50505050565b6000600282049050600182168061136557607f821691505b60208210811415611379576113786113df565b5b50919050565b6113888261143d565b810181811067ffffffffffffffff821117156113a7576113a661140e565b5b80604052505050565b7f4e487b7100000000000000000000000000000000000000000000000000000000600052601160045260246000fd5b7f4e487b7100000000000000000000000000000000000000000000000000000000600052602260045260246000fd5b7f4e487b7100000000000000000000000000000000000000000000000000000000600052604160045260246000fd5b6000601f19601f8301169050919050565b7f53656c6c20506f736974696f6e20646f6573206e6f7420657869737400000000600082015250565b7f746f6b656e206973206e6f742063455552206f72206355534400000000000000600082015250565b7f416464726573733a20696e73756666696369656e742062616c616e636520666f60008201527f722063616c6c0000000000000000000000000000000000000000000000000000602082015250565b7f4f6e6c79207468652070726f64756365722063616e2073656c6c20697473204260008201527f65616e0000000000000000000000000000000000000000000000000000000000602082015250565b7f5468652070726963652073686f756c64206265207369676e69666963616e7400600082015250565b7f506f736974696f6e20697320616c726561647920736f6c640000000000000000600082015250565b7f54686520616d6f756e742073686f756c64206265207369676e69666963616e74600082015250565b7f416464726573733a2063616c6c20746f206e6f6e2d636f6e7472616374000000600082015250565b7f5361666545524332303a204552433230206f7065726174696f6e20646964206e60008201527f6f74207375636365656400000000000000000000000000000000000000000000602082015250565b7f5468652072656d61696e64657220616d6f756e74206973206c6573732074686160008201527f6e207468652073656c6c696e6720616d6f756e74000000000000000000000000602082015250565b611689816112c3565b811461169457600080fd5b50565b6116a0816112d5565b81146116ab57600080fd5b50565b6116b781611301565b81146116c257600080fd5b5056fea2646970667358221220610842e1842fd9743ec524976bbdab7ddf65dc1b929be29a6459ea0fe2d83b7664736f6c63430008040033a26469706673582212201062cf65a13463be4721e0989393523c17210e75b1d09e865168623f89b82e5964736f6c63430008040033",
  "linkReferences": {},
  "deployedLinkReferences": {}
}